:020000040000FA
:020000008B284B
:040002000034003492
:08000800A600030EA7000C1B6B
:100010007A200B192220270E8300A60E260E090037
:100020000F398207E7346034D334F2347434B63491
:10003000B734E034F734F6341034FF34E5340834A0
:10004000373417348220702085150515061586145F
:1000500020183128A0183C2820194728A019522818
:100060005C283B0810208700201A8715692085111D
:100070002010A0140B1108003C0810208700A01AC3
:10008000871569200511A01020150B1108003D08E7
:1000900010208700201B8715692006112011A0154C
:1000A0000B1108003E0810208700A01B871569204F
:1000B0008610A0110B11080087018613A11F871756
:1000C000211F0717A11E871686172014A90A0B11D6
:1000D00008008514071E85100614871D05100800EA
:1000E000211908002D0803197728AD0308002115F0
:1000F0001F1508001E08AC000C13A2162030AD001E
:10010000211108002B0803198628AB036F08031977
:100110000800EF03080083160130850038308600A0
:1001200000308700013081000E309F008312813043
:100130009F008C018C010C178B160B178B17A001DD
:10014000A1010130A200A201A301A401A501A901FE
:10015000A901AA01AB01AE01AD01E001E101E2019B
:10016000E301E401E501E60131302902031DF52830
:10017000B928A90124080339ED0003306D020319E1
:10018000C328A40AF528A90AA4102410241DCA28EB
:100190002411CC282415CC28E00A0A306002031D63
:1001A000F528E001E10A06306102031DF528E101AE
:1001B000E20A0A306202031DF528E201E30A063072
:1001C0006302031DF528E301E40AE60A0A3064022B
:1001D000031DED28E401E50AF52818306602031D29
:1001E000F528E601E401E501F528C02AA21A6721F5
:1001F0002B08031D1B29A118032906081C391C3ACA
:10020000031D1B29A11486190B29A11050217F3031
:10021000AB0038231B29061A1329A11050217F3067
:10022000AB003F231B29861A1B29A11050217F30C8
:10023000AB0042231B2929211E21B4286F08031972
:100240002729BF1827293F19272905160800051255
:100250000800EF08031D0800F008031D3C29F10801
:1002600003190800F1030830F000BF103F193A29C4
:100270003F153C293F113C29F003BF1941297A3031
:1002800042293D30EF00BF184729BF140800BF10B6
:100290000800F001F101F430EF00BF103F11080039
:1002A000F001F1010F30EF00BF103F110800EF0126
:1002B000F1010430F000BF103F11BF110800EF0141
:1002C000F0010830F100BF143F15BF150800A2125D
:1002D0002E187729AE1882292E198E29AE19992940
:1002E0002E1AA529AE1AB0292E1BBC29C7292C0805
:1002F000AF00B0012F18B00AAF0C2F08B1002E10BC
:10030000AE1408002C08AF002F18B00AAF0C2F084D
:10031000B107B018B10AAE102E1508002C08AF00B6
:10032000B0012F18B00AAF0C2F08B2002E11AE1575
:1003300008002C08AF002F18B00AAF0C2F08B20726
:10034000B018B10AAE112E1608002C08AF00B0018B
:100350002F18B00AAF0C2F08B3002E12AE160800EB
:100360002C08AF002F18B00AAF0C2F08B307B01835
:10037000B10AAE122E1708002C08AF00B0012F18DA
:10038000B00AAF0C2F08B4002E13AE1708002C08CB
:10039000AF002F18B00AAF0C2F08B407B018B10A7D
:1003A000B0013118B00A3218B00AB10CB20C3108E1
:1003B000B207B018B20AB0013318B00A3418B00A44
:1003C000B30CB40C3308B407B018B40AB001321837
:1003D000B00A3418B00AB20CB40C3208B407B01822
:1003E000B40A3408AF002F0CB4073408B800AE13B9
:1003F0002E140800B501B601B7013A080319080028
:10040000BA03B50A0A303502031DFD29B501B60A43
:100410000A303602031DFD29B601B70AFD2924184A
:10042000122A142A20120800201608002418192A5B
:100430001B2AA0120800A01608002418202A222A2D
:1004400020130800201708002418272A292AA0139F
:100450000800A01708004030840008008000840ACB
:1004600008008403000880010800610EEE006008A7
:10047000EE076E082E22630EEE006208EE076E088D
:100480002E22650EEE006408EE076E082E22380854
:100490002E2208003122B9003122EE000F39EB0084
:1004A0006E0E0F39EC003122EE000F39E9006E0EAE
:1004B0000F39EA003122EE000F39E7006E0E0F39D6
:1004C000E8000800E001E1010800E20A0A306202E7
:1004D000031D0800E201E30A06306302031D080061
:1004E000E30108000800E40AE60A0A306402031D7A
:1004F0007B2AE401E50A18306602031D0800E601C4
:10050000E501E401080062080319882AE2030800F3
:10051000630803198F2AE3030930E2000800093059
:10052000E2000530E3000800640803199A2AE40396
:10053000E603080065080319A22AE5030930E40070
:10054000E60308000330E4000230E5001730E6005F
:1005500008000800A218AF2AA21022140800A21452
:100560002210080072080319BE2A2112F2034A223F
:1005700072080319BC2A0800A1110800A211080082
:100580002012A0122013A013A1132113A112A2194B
:10059000112B2219F32AA218CE2AE52A2422211788
:1005A000211CD32ADC2A6208BE006308BD0064084F
:1005B000BC006508BB00F6286008BE006108BD00ED
:1005C0006208BC006308BB00F6282422A117380883
:1005D000BA00FA213508BE003608BD003708BC0055
:1005E0002508BB00F62821172319062B6008BE003A
:1005F0006108BD006208BC006308BB002318032B20
:100600001D222422F6280F221622F6286008BE009A
:100610006108BD006208BC006308BB001D222422E3
:10062000F628A116A218152B2B2B2117211C192BEC
:10063000222B6908BE006A08BD006B08BC006C086C
:10064000BB00F6286708BE006808BD006908BC004A
:100650006A08BB00F628A1173908BA00FA21350844
:10066000BE003608BD003708BC002508BB00F628D0
:10067000A2195F2B2219592BA218532B492B22198F
:10068000602BAA2AA219732B22196C2BA218682B93
:10069000662B211A512BA115F20A35227219211647
:1006A000080050210800211C572B2110080021149C
:1006B00008002319622AA318652A2318732A080040
:1006C0002319622AA318832A2318942AA215B22A6E
:1006D00022152314211008002319702BA30D0800E4
:0806E000A30122110800B22A57
:00000001FF
